:0F00000075800112021C7580FF12021C758001B1
:0F000F0012021C7580FF12021C75800112021C68
:0F001E007580FF12021C75800112021C7580FF95
:0F002D0012021C75800112021C7580FF12021C4A
:0F003C007580F712021C7580FF12021C7580F789
:0F004B0012021C7580FF12021C7580F712021C36
:0F005A007580FF12021C7580F712021C7580FF63
:0F00690012021C7580F712021C7580FF12021C18
:0F0078007580F512021C7580FF12021C7580F551
:0F00870012021C7580FF12021C7580F512021CFC
:0F0096007580FF12021C7580F512021C7580FF29
:0F00A50012021C7580F512021C7580FF12021CDE
:0F00B4007580B512021C7580FF12021C7580B595
:0F00C30012021C7580FF12021C7580B512021C00
:0F00D2007580FF12021C7580B512021C7580FF2D
:0F00E10012021C7580B512021C7580FF12021CE2
:0F00F00075803512021C7580FF12021C75803559
:0F00FF0012021C7580FF12021C75803512021C44
:0F010E007580FF12021C75803512021C7580FF70
:0F011D0012021C75803512021C7580FF12021C25
:0F012C0075803112021C7580FF12021C75803124
:0F013B0012021C7580FF12021C75803112021C0B
:0F014A007580FF12021C75803112021C7580FF38
:0F01590012021C75803112021C7580FF12021CED
:0F01680075803112021C7580FF12021C758031E8
:0F01770012021C7580FF12021C75803112021CCF
:0F0186007580FF12021C75803112021C7580FFFC
:0F01950012021C75803112021C7580FF12021CB1
:0F01A40075801112021C7580FF12021C758011EC
:0F01B30012021C7580FF12021C75801112021CB3
:0F01C2007580FF12021C75801112021C7580FFE0
:0F01D10012021C75801112021C7580FF12021C95
:0F01E00075800112021C7580FF12021C758001D0
:0F01EF0012021C7580FF12021C75800112021C87
:0F01FE007580FF12021C75800112021C7580FFB4
:0F020D0012021C75800112021C7580FF12021C68
:10021C00D2CA30CFFDC2CAC2CEC2CFD2CA30CFFDF5
:07022C00C2CAC2CEC2CF22FC
:00000001FF
